{
  "_format": "hh3-artifact-1",
  "contractName": "Airdrop",
  "sourceName": "contracts/Airdrop/airdrop.sol",
  "abi": [
    {
      "inputs": [
        {
          "internalType": "address",
          "name": "_owner",
          "type": "address"
        },
        {
          "internalType": "address",
          "name": "_tokenAddress",
          "type": "address"
        },
        {
          "internalType": "uint256",
          "name": "_totalAmount",
          "type": "uint256"
        },
        {
          "internalType": "uint256",
          "name": "_airdropAmount",
          "type": "uint256"
        },
        {
          "internalType": "uint256",
          "name": "_endTime",
          "type": "uint256"
        }
      ],
      "stateMutability": "nonpayable",
      "type": "constructor"
    },
    {
      "anonymous": false,
      "inputs": [
        {
          "indexed": true,
          "internalType": "address",
          "name": "user",
          "type": "address"
        },
        {
          "indexed": false,
          "internalType": "uint256",
          "name": "amount",
          "type": "uint256"
        }
      ],
      "name": "Airdropped",
      "type": "event"
    },
    {
      "inputs": [
        {
          "internalType": "address",
          "name": "_user",
          "type": "address"
        }
      ],
      "name": "addUser",
      "outputs": [],
      "stateMutability": "nonpayable",
      "type": "function"
    },
    {
      "inputs": [],
      "name": "airdrop",
      "outputs": [],
      "stateMutability": "nonpayable",
      "type": "function"
    },
    {
      "inputs": [],
      "name": "airdropAmount",
      "outputs": [
        {
          "internalType": "uint256",
          "name": "",
          "type": "uint256"
        }
      ],
      "stateMutability": "view",
      "type": "function"
    },
    {
      "inputs": [
        {
          "internalType": "address",
          "name": "_user",
          "type": "address"
        }
      ],
      "name": "deleteUser",
      "outputs": [],
      "stateMutability": "nonpayable",
      "type": "function"
    },
    {
      "inputs": [],
      "name": "endTime",
      "outputs": [
        {
          "internalType": "uint256",
          "name": "",
          "type": "uint256"
        }
      ],
      "stateMutability": "view",
      "type": "function"
    },
    {
      "inputs": [],
      "name": "getAirdropStatus",
      "outputs": [
        {
          "internalType": "bool",
          "name": "_isActive",
          "type": "bool"
        },
        {
          "internalType": "bool",
          "name": "_hasStarted",
          "type": "bool"
        },
        {
          "internalType": "bool",
          "name": "_hasEnded",
          "type": "bool"
        },
        {
          "internalType": "uint256",
          "name": "_currentTime",
          "type": "uint256"
        },
        {
          "internalType": "uint256",
          "name": "_timeUntilStart",
          "type": "uint256"
        },
        {
          "internalType": "uint256",
          "name": "_timeUntilEnd",
          "type": "uint256"
        }
      ],
      "stateMutability": "view",
      "type": "function"
    },
    {
      "inputs": [],
      "name": "getTimeUntilEnd",
      "outputs": [
        {
          "internalType": "uint256",
          "name": "",
          "type": "uint256"
        }
      ],
      "stateMutability": "view",
      "type": "function"
    },
    {
      "inputs": [],
      "name": "getTimeUntilStart",
      "outputs": [
        {
          "internalType": "uint256",
          "name": "",
          "type": "uint256"
        }
      ],
      "stateMutability": "view",
      "type": "function"
    },
    {
      "inputs": [
        {
          "internalType": "address",
          "name": "_user",
          "type": "address"
        }
      ],
      "name": "getUser",
      "outputs": [
        {
          "components": [
            {
              "internalType": "uint256",
              "name": "amount",
              "type": "uint256"
            },
            {
              "internalType": "bool",
              "name": "isClaimed",
              "type": "bool"
            },
            {
              "internalType": "address",
              "name": "user",
              "type": "address"
            }
          ],
          "internalType": "struct Airdrop.User",
          "name": "",
          "type": "tuple"
        }
      ],
      "stateMutability": "view",
      "type": "function"
    },
    {
      "inputs": [],
      "name": "isAirdropActive",
      "outputs": [
        {
          "internalType": "bool",
          "name": "",
          "type": "bool"
        }
      ],
      "stateMutability": "view",
      "type": "function"
    },
    {
      "inputs": [],
      "name": "owner",
      "outputs": [
        {
          "internalType": "address",
          "name": "",
          "type": "address"
        }
      ],
      "stateMutability": "view",
      "type": "function"
    },
    {
      "inputs": [],
      "name": "startTime",
      "outputs": [
        {
          "internalType": "uint256",
          "name": "",
          "type": "uint256"
        }
      ],
      "stateMutability": "view",
      "type": "function"
    },
    {
      "inputs": [],
      "name": "tokenAddress",
      "outputs": [
        {
          "internalType": "contract IERC20",
          "name": "",
          "type": "address"
        }
      ],
      "stateMutability": "view",
      "type": "function"
    },
    {
      "inputs": [],
      "name": "totalAmount",
      "outputs": [
        {
          "internalType": "uint256",
          "name": "",
          "type": "uint256"
        }
      ],
      "stateMutability": "view",
      "type": "function"
    },
    {
      "inputs": [
        {
          "internalType": "uint256",
          "name": "",
          "type": "uint256"
        }
      ],
      "name": "userList",
      "outputs": [
        {
          "internalType": "uint256",
          "name": "amount",
          "type": "uint256"
        },
        {
          "internalType": "bool",
          "name": "isClaimed",
          "type": "bool"
        },
        {
          "internalType": "address",
          "name": "user",
          "type": "address"
        }
      ],
      "stateMutability": "view",
      "type": "function"
    }
  ],
  "bytecode": "0x610120604052348015610010575f5ffd5b506040516114f03803806114f083398101604081905261002f916101e0565b42811161008d5760405162461bcd60e51b815260206004820152602160248201527f456e642074696d65206d7573742062652061667465722073746172742074696d6044820152606560f81b60648201526084015b60405180910390fd5b5f83116100e85760405162461bcd60e51b815260206004820152602360248201527f546f74616c20616d6f756e74206d75737420626520677265617465722074686160448201526206e20360ec1b6064820152608401610084565b5f82116101455760405162461bcd60e51b815260206004820152602560248201527f41697264726f7020616d6f756e74206d75737420626520677265617465722074604482015264068616e20360dc1b6064820152608401610084565b6001600160a01b03841661019b5760405162461bcd60e51b815260206004820152601560248201527f496e76616c696420746f6b656e206164647265737300000000000000000000006044820152606401610084565b4260c0526001600160a01b0394851660805292909316610100525f5560a09190915260e05261022a565b80516001600160a01b03811681146101db575f5ffd5b919050565b5f5f5f5f5f60a086880312156101f4575f5ffd5b6101fd866101c5565b945061020b602087016101c5565b6040870151606088015160809098015196999198509695945092505050565b60805160a05160c05160e051610100516111e161030f5f395f8181610221015281816104aa015261060e01525f8181610114015281816104310152818161071601528181610746015281816107da01528181610f7e01528181610ff3015261106301525f81816101bb015281816103c1015281816107b901528181610e0b01528181610e3b01528181610f5601528181610fbd015261103701525f81816102d401528181610574015281816106c10152818161090e0152818161096f0152610dd101525f81816101e20152818161077a01528181610a740152610e8601526111e15ff3fe608060405234801561000f575f5ffd5b50600436106100f0575f3560e01c80636f77926b116100935780639f4216e8116100635780639f4216e814610243578063c9dd3d6d1461027a578063e20d810f146102b7578063fc2ea8a5146102cf575f5ffd5b80636f77926b1461017657806378e97925146101b65780638da5cb5b146101dd5780639d76ea581461021c575f5ffd5b806338e66d22116100ce57806338e66d2214610140578063421b2d8b146101485780635c60f2261461015b5780636766d1ba1461016e575f5ffd5b80631a39d8ef146100f45780633197cbb61461010f5780633884d63514610136575b5f5ffd5b6100fc5f5481565b6040519081526020015b60405180910390f35b6100fc7f000000000000000000000000000000000000000000000000000000000000000081565b61013e6102f6565b005b6100fc610713565b61013e610156366004611088565b61076f565b61013e610169366004611088565b610a69565b6100fc610e08565b610189610184366004611088565b610e5f565b6040805182518152602080840151151590820152918101516001600160a01b031690820152606001610106565b6100fc7f000000000000000000000000000000000000000000000000000000000000000081565b6102047f000000000000000000000000000000000000000000000000000000000000000081565b6040516001600160a01b039091168152602001610106565b6102047f000000000000000000000000000000000000000000000000000000000000000081565b6102566102513660046110b5565b610f0f565b6040805193845291151560208401526001600160a01b031690820152606001610106565b610282610f4e565b6040805196151587529415156020870152921515938501939093526060840152608083019190915260a082015260c001610106565b6102bf611034565b6040519015158152602001610106565b6100fc7f000000000000000000000000000000000000000000000000000000000000000081565b335f8181526002602052604090206001015461010090046001600160a01b03161461035d5760405162461bcd60e51b81526020600482015260126024820152712cb7ba9030b932903737ba1030903ab9b2b960711b60448201526064015b60405180910390fd5b335f9081526002602052604090206001015460ff16156103bf5760405162461bcd60e51b815260206004820152601860248201527f596f75206861766520616c726561647920636c61696d656400000000000000006044820152606401610354565b7f000000000000000000000000000000000000000000000000000000000000000042101561042f5760405162461bcd60e51b815260206004820152601b60248201527f41697264726f7020686173206e6f7420737461727465642079657400000000006044820152606401610354565b7f00000000000000000000000000000000000000000000000000000000000000004211156104935760405162461bcd60e51b8152602060048201526011602482015270105a5c991c9bdc081a185cc8195b991959607a1b6044820152606401610354565b6040516370a0823160e01b81523060048201525f907f00000000000000000000000000000000000000000000000000000000000000006001600160a01b0316906370a0823190602401602060405180830381865afa1580156104f7573d5f5f3e3d5ffd5b505050506040513d601f19601f8201168201806040525081019061051b91906110cc565b116105685760405162461bcd60e51b815260206004820152601a60248201527f496e73756666696369656e7420746f6b656e2062616c616e63650000000000006044820152606401610354565b604080516060810182527f000000000000000000000000000000000000000000000000000000000000000080825260016020808401828152338587018181525f82815260029094529287902095518655905194909201805491516001600160a81b0319909216941515610100600160a81b031916949094176101006001600160a01b039283160217909355925163a9059cbb60e01b8152600481019390935260248301527f0000000000000000000000000000000000000000000000000000000000000000169063a9059cbb906044016020604051808303815f875af1158015610654573d5f5f3e3d5ffd5b505050506040513d601f19601f8201168201806040525081019061067891906110e3565b6106bc5760405162461bcd60e51b8152602060048201526015602482015274151bdad95b881d1c985b9cd9995c8819985a5b1959605a1b6044820152606401610354565b6040517f0000000000000000000000000000000000000000000000000000000000000000815233907f7bd6d4be1decdc27a9ed9c7ccdf5bb7cc38e31b3647b958c6b37162a2296c0fa9060200160405180910390a2565b5f7f0000000000000000000000000000000000000000000000000000000000000000421061074057505f90565b61076a427f0000000000000000000000000000000000000000000000000000000000000000611116565b905090565b336001600160a01b037f000000000000000000000000000000000000000000000000000000000000000016146107b75760405162461bcd60e51b81526004016103549061112f565b7f00000000000000000000000000000000000000000000000000000000000000007f0000000000000000000000000000000000000000000000000000000000000000116108465760405162461bcd60e51b815260206004820152601b60248201527f41697264726f702068617320616c7265616479207374617274656400000000006044820152606401610354565b6001600160a01b0381165f90815260026020526040902054156108a15760405162461bcd60e51b81526020600482015260136024820152725573657220616c72656164792065786973747360681b6044820152606401610354565b6001600160a01b0381165f9081526002602052604090206001015460ff161561090c5760405162461bcd60e51b815260206004820152601760248201527f5573657220697320616c726561647920636c61696d65640000000000000000006044820152606401610354565b7f00000000000000000000000000000000000000000000000000000000000000005f5f82825461093c9190611116565b9091555050600180546001600160a01b039283165f818152600360209081526040808320949094558351606080820186527f00000000000000000000000000000000000000000000000000000000000000008083528284018581528388018781528787526002808752898820955186559151948a01805491518c16610100908102610100600160a81b031997151588166001600160a81b0319948516171790915589519485018a529284529483018681529783019687528854808a018a55989095529051969093027fb10e2d527612073b26eecdfd717e6a320cf44b4afac2b0732d9fcbe2b7fa0cf681019690965593517fb10e2d527612073b26eecdfd717e6a320cf44b4afac2b0732d9fcbe2b7fa0cf790950180549351909616909102931515909216911617179055565b336001600160a01b037f00000000000000000000000000000000000000000000000000000000000000001614610ab15760405162461bcd60e51b81526004016103549061112f565b6001600160a01b038082165f81815260026020526040902060010154610100900490911614610b135760405162461bcd60e51b815260206004820152600e60248201526d155cd95c881b9bdd08199bdd5b9960921b6044820152606401610354565b6001600160a01b0381165f9081526002602052604090206001015460ff1615610b7e5760405162461bcd60e51b815260206004820152601860248201527f557365722068617320616c726561647920636c61696d656400000000000000006044820152606401610354565b6001600160a01b0381165f908152600360205260409020546001548110610bdc5760405162461bcd60e51b8152602060048201526012602482015271092dcecc2d8d2c840eae6cae440d2dcc8caf60731b6044820152606401610354565b816001600160a01b031660018281548110610bf957610bf9611170565b5f91825260209091206002909102016001015461010090046001600160a01b031614610c5d5760405162461bcd60e51b81526020600482015260136024820152720aae6cae440d2dcc8caf040dad2e6dac2e8c6d606b1b6044820152606401610354565b60018054610c6b9190611116565b811015610d5d5760018054610c81908290611116565b81548110610c9157610c91611170565b905f5260205f20906002020160018281548110610cb057610cb0611170565b5f91825260208220835460029092020190815560019283018054918401805460ff909316151560ff1984168117825591546001600160a01b03610100918290041602610100600160a81b03199092166001600160a81b031990931692909217179055815483926003929184908110610d2a57610d2a611170565b5f91825260208083206002929092029091016001015461010090046001600160a01b031683528201929092526040019020555b6001805480610d6e57610d6e611184565b5f828152602080822060025f19909401848102909101838155600190810180546001600160a81b0319908116909155919095556001600160a01b0387168352600382526040808420849055939091529181208181559092018054909116905580547f000000000000000000000000000000000000000000000000000000000000000091908190610dff908490611198565b90915550505050565b5f7f00000000000000000000000000000000000000000000000000000000000000004210610e3557505f90565b61076a427f0000000000000000000000000000000000000000000000000000000000000000611116565b604080516060810182525f8082526020820181905291810191909152336001600160a01b037f00000000000000000000000000000000000000000000000000000000000000001614610ec35760405162461bcd60e51b81526004016103549061112f565b506001600160a01b039081165f9081526002602090815260409182902082516060810184528154815260019091015460ff81161515928201929092526101009091049092169082015290565b60018181548110610f1e575f80fd5b5f9182526020909120600290910201805460019091015490915060ff81169061010090046001600160a01b031683565b5f80808080807f0000000000000000000000000000000000000000000000000000000000000000429081108015917f000000000000000000000000000000000000000000000000000000000000000011159083908390610fac575081155b90508083834286610fe657610fe1427f0000000000000000000000000000000000000000000000000000000000000000611116565b610fe8565b5f5b8661101c57611017427f0000000000000000000000000000000000000000000000000000000000000000611116565b61101e565b5f5b949e939d50919b50995097509095509350505050565b5f7f0000000000000000000000000000000000000000000000000000000000000000421015801561076a5750507f000000000000000000000000000000000000000000000000000000000000000042111590565b5f60208284031215611098575f5ffd5b81356001600160a01b03811681146110ae575f5ffd5b9392505050565b5f602082840312156110c5575f5ffd5b5035919050565b5f602082840312156110dc575f5ffd5b5051919050565b5f602082840312156110f3575f5ffd5b815180151581146110ae575f5ffd5b634e487b7160e01b5f52601160045260245ffd5b8181038181111561112957611129611102565b92915050565b60208082526021908201527f4f6e6c79206f776e65722063616e2063616c6c20746869732066756e6374696f6040820152603760f91b606082015260800190565b634e487b7160e01b5f52603260045260245ffd5b634e487b7160e01b5f52603160045260245ffd5b808201808211156111295761112961110256fea264697066735822122061ebd30a57b3f4d0dffbc21d5cac596084cf322968e6f15ca69a86385326c63a64736f6c634300081c0033",
  "linkReferences": {},
  "deployedLinkReferences": {},
  "immutableReferences": {
    "82": [
      {
        "length": 32,
        "start": 482
      },
      {
        "length": 32,
        "start": 1914
      },
      {
        "length": 32,
        "start": 2676
      },
      {
        "length": 32,
        "start": 3718
      }
    ],
    "84": [
      {
        "length": 32,
        "start": 724
      },
      {
        "length": 32,
        "start": 1396
      },
      {
        "length": 32,
        "start": 1729
      },
      {
        "length": 32,
        "start": 2318
      },
      {
        "length": 32,
        "start": 2415
      },
      {
        "length": 32,
        "start": 3537
      }
    ],
    "86": [
      {
        "length": 32,
        "start": 443
      },
      {
        "length": 32,
        "start": 961
      },
      {
        "length": 32,
        "start": 1977
      },
      {
        "length": 32,
        "start": 3595
      },
      {
        "length": 32,
        "start": 3643
      },
      {
        "length": 32,
        "start": 3926
      },
      {
        "length": 32,
        "start": 4029
      },
      {
        "length": 32,
        "start": 4151
      }
    ],
    "88": [
      {
        "length": 32,
        "start": 276
      },
      {
        "length": 32,
        "start": 1073
      },
      {
        "length": 32,
        "start": 1814
      },
      {
        "length": 32,
        "start": 1862
      },
      {
        "length": 32,
        "start": 2010
      },
      {
        "length": 32,
        "start": 3966
      },
      {
        "length": 32,
        "start": 4083
      },
      {
        "length": 32,
        "start": 4195
      }
    ],
    "93": [
      {
        "length": 32,
        "start": 545
      },
      {
        "length": 32,
        "start": 1194
      },
      {
        "length": 32,
        "start": 1550
      }
    ]
  },
  "inputSourceName": "project/contracts/Airdrop/airdrop.sol",
  "buildInfoId": "solc-0_8_28-4c7bec712db9019cd180106c055628347bdfc091"
}