{
  "_format": "hh3-artifact-1",
  "contractName": "Airdrop",
  "sourceName": "contracts/Airdrop/airdrop.sol",
  "abi": [
    {
      "inputs": [
        {
          "internalType": "address",
          "name": "_tokenAddress",
          "type": "address"
        },
        {
          "internalType": "uint256",
          "name": "_totalAmount",
          "type": "uint256"
        },
        {
          "internalType": "uint256",
          "name": "_airdropAmount",
          "type": "uint256"
        },
        {
          "internalType": "uint256",
          "name": "_endTime",
          "type": "uint256"
        }
      ],
      "stateMutability": "nonpayable",
      "type": "constructor"
    },
    {
      "inputs": [],
      "name": "EnforcedPause",
      "type": "error"
    },
    {
      "inputs": [],
      "name": "ExpectedPause",
      "type": "error"
    },
    {
      "inputs": [
        {
          "internalType": "address",
          "name": "owner",
          "type": "address"
        }
      ],
      "name": "OwnableInvalidOwner",
      "type": "error"
    },
    {
      "inputs": [
        {
          "internalType": "address",
          "name": "account",
          "type": "address"
        }
      ],
      "name": "OwnableUnauthorizedAccount",
      "type": "error"
    },
    {
      "inputs": [],
      "name": "ReentrancyGuardReentrantCall",
      "type": "error"
    },
    {
      "anonymous": false,
      "inputs": [
        {
          "indexed": true,
          "internalType": "address",
          "name": "user",
          "type": "address"
        },
        {
          "indexed": false,
          "internalType": "uint256",
          "name": "amount",
          "type": "uint256"
        }
      ],
      "name": "Airdropped",
      "type": "event"
    },
    {
      "anonymous": false,
      "inputs": [
        {
          "indexed": true,
          "internalType": "address",
          "name": "previousOwner",
          "type": "address"
        },
        {
          "indexed": true,
          "internalType": "address",
          "name": "newOwner",
          "type": "address"
        }
      ],
      "name": "OwnershipTransferred",
      "type": "event"
    },
    {
      "anonymous": false,
      "inputs": [
        {
          "indexed": false,
          "internalType": "address",
          "name": "account",
          "type": "address"
        }
      ],
      "name": "Paused",
      "type": "event"
    },
    {
      "anonymous": false,
      "inputs": [
        {
          "indexed": false,
          "internalType": "address",
          "name": "account",
          "type": "address"
        }
      ],
      "name": "Unpaused",
      "type": "event"
    },
    {
      "inputs": [
        {
          "internalType": "address",
          "name": "_user",
          "type": "address"
        }
      ],
      "name": "addUser",
      "outputs": [],
      "stateMutability": "nonpayable",
      "type": "function"
    },
    {
      "inputs": [],
      "name": "airdrop",
      "outputs": [],
      "stateMutability": "nonpayable",
      "type": "function"
    },
    {
      "inputs": [],
      "name": "airdropAmount",
      "outputs": [
        {
          "internalType": "uint256",
          "name": "",
          "type": "uint256"
        }
      ],
      "stateMutability": "view",
      "type": "function"
    },
    {
      "inputs": [
        {
          "internalType": "address",
          "name": "_user",
          "type": "address"
        }
      ],
      "name": "deleteUser",
      "outputs": [],
      "stateMutability": "nonpayable",
      "type": "function"
    },
    {
      "inputs": [],
      "name": "emergencyWithdraw",
      "outputs": [],
      "stateMutability": "nonpayable",
      "type": "function"
    },
    {
      "inputs": [],
      "name": "endTime",
      "outputs": [
        {
          "internalType": "uint256",
          "name": "",
          "type": "uint256"
        }
      ],
      "stateMutability": "view",
      "type": "function"
    },
    {
      "inputs": [],
      "name": "getAirdropStatus",
      "outputs": [
        {
          "internalType": "bool",
          "name": "_isActive",
          "type": "bool"
        },
        {
          "internalType": "bool",
          "name": "_hasStarted",
          "type": "bool"
        },
        {
          "internalType": "bool",
          "name": "_hasEnded",
          "type": "bool"
        },
        {
          "internalType": "uint256",
          "name": "_currentTime",
          "type": "uint256"
        },
        {
          "internalType": "uint256",
          "name": "_timeUntilStart",
          "type": "uint256"
        },
        {
          "internalType": "uint256",
          "name": "_timeUntilEnd",
          "type": "uint256"
        }
      ],
      "stateMutability": "view",
      "type": "function"
    },
    {
      "inputs": [],
      "name": "getOwner",
      "outputs": [
        {
          "internalType": "address",
          "name": "",
          "type": "address"
        }
      ],
      "stateMutability": "view",
      "type": "function"
    },
    {
      "inputs": [],
      "name": "getTimeUntilEnd",
      "outputs": [
        {
          "internalType": "uint256",
          "name": "",
          "type": "uint256"
        }
      ],
      "stateMutability": "view",
      "type": "function"
    },
    {
      "inputs": [],
      "name": "getTimeUntilStart",
      "outputs": [
        {
          "internalType": "uint256",
          "name": "",
          "type": "uint256"
        }
      ],
      "stateMutability": "view",
      "type": "function"
    },
    {
      "inputs": [
        {
          "internalType": "address",
          "name": "_user",
          "type": "address"
        }
      ],
      "name": "getUser",
      "outputs": [
        {
          "components": [
            {
              "internalType": "uint256",
              "name": "amount",
              "type": "uint256"
            },
            {
              "internalType": "bool",
              "name": "isClaimed",
              "type": "bool"
            },
            {
              "internalType": "address",
              "name": "user",
              "type": "address"
            }
          ],
          "internalType": "struct Airdrop.User",
          "name": "",
          "type": "tuple"
        }
      ],
      "stateMutability": "view",
      "type": "function"
    },
    {
      "inputs": [],
      "name": "getUserList",
      "outputs": [
        {
          "components": [
            {
              "internalType": "uint256",
              "name": "amount",
              "type": "uint256"
            },
            {
              "internalType": "bool",
              "name": "isClaimed",
              "type": "bool"
            },
            {
              "internalType": "address",
              "name": "user",
              "type": "address"
            }
          ],
          "internalType": "struct Airdrop.User[]",
          "name": "",
          "type": "tuple[]"
        }
      ],
      "stateMutability": "view",
      "type": "function"
    },
    {
      "inputs": [],
      "name": "isAirdropActive",
      "outputs": [
        {
          "internalType": "bool",
          "name": "",
          "type": "bool"
        }
      ],
      "stateMutability": "view",
      "type": "function"
    },
    {
      "inputs": [],
      "name": "owner",
      "outputs": [
        {
          "internalType": "address",
          "name": "",
          "type": "address"
        }
      ],
      "stateMutability": "view",
      "type": "function"
    },
    {
      "inputs": [],
      "name": "pause",
      "outputs": [],
      "stateMutability": "nonpayable",
      "type": "function"
    },
    {
      "inputs": [],
      "name": "paused",
      "outputs": [
        {
          "internalType": "bool",
          "name": "",
          "type": "bool"
        }
      ],
      "stateMutability": "view",
      "type": "function"
    },
    {
      "inputs": [],
      "name": "renounceOwnership",
      "outputs": [],
      "stateMutability": "nonpayable",
      "type": "function"
    },
    {
      "inputs": [],
      "name": "startTime",
      "outputs": [
        {
          "internalType": "uint256",
          "name": "",
          "type": "uint256"
        }
      ],
      "stateMutability": "view",
      "type": "function"
    },
    {
      "inputs": [],
      "name": "tokenAddress",
      "outputs": [
        {
          "internalType": "contract IERC20",
          "name": "",
          "type": "address"
        }
      ],
      "stateMutability": "view",
      "type": "function"
    },
    {
      "inputs": [],
      "name": "totalAmount",
      "outputs": [
        {
          "internalType": "uint256",
          "name": "",
          "type": "uint256"
        }
      ],
      "stateMutability": "view",
      "type": "function"
    },
    {
      "inputs": [
        {
          "internalType": "address",
          "name": "newOwner",
          "type": "address"
        }
      ],
      "name": "transferOwnership",
      "outputs": [],
      "stateMutability": "nonpayable",
      "type": "function"
    },
    {
      "inputs": [],
      "name": "unpause",
      "outputs": [],
      "stateMutability": "nonpayable",
      "type": "function"
    },
    {
      "inputs": [
        {
          "internalType": "uint256",
          "name": "",
          "type": "uint256"
        }
      ],
      "name": "userList",
      "outputs": [
        {
          "internalType": "uint256",
          "name": "amount",
          "type": "uint256"
        },
        {
          "internalType": "bool",
          "name": "isClaimed",
          "type": "bool"
        },
        {
          "internalType": "address",
          "name": "user",
          "type": "address"
        }
      ],
      "stateMutability": "view",
      "type": "function"
    }
  ],
  "bytecode": "0x610100604052348015610010575f5ffd5b506040516119b23803806119b283398101604081905261002f9161023c565b338061005557604051631e4fbdf760e01b81525f60048201526024015b60405180910390fd5b61005e816101ed565b50600180554281116100bc5760405162461bcd60e51b815260206004820152602160248201527f456e642074696d65206d7573742062652061667465722073746172742074696d6044820152606560f81b606482015260840161004c565b5f83116101175760405162461bcd60e51b815260206004820152602360248201527f546f74616c20616d6f756e74206d75737420626520677265617465722074686160448201526206e20360ec1b606482015260840161004c565b5f82116101745760405162461bcd60e51b815260206004820152602560248201527f41697264726f7020616d6f756e74206d75737420626520677265617465722074604482015264068616e20360dc1b606482015260840161004c565b6001600160a01b0384166101ca5760405162461bcd60e51b815260206004820152601560248201527f496e76616c696420746f6b656e20616464726573730000000000000000000000604482015260640161004c565b4260a0526001600160a01b0390931660e05260039190915560805260c052610283565b5f80546001600160a01b038381166001600160a01b0319831681178455604051919092169283917f8be0079c531659141344cd1fd0a4f28419497f9722a3daafe3b4186f6b6457e09190a35050565b5f5f5f5f6080858703121561024f575f5ffd5b84516001600160a01b0381168114610265575f5ffd5b60208601516040870151606090970151919890975090945092505050565b60805160a05160c05160e05161165b6103575f395f818161027e015281816105270152818161069b015281816110f701526111b301525f818161016d015281816104ae015281816107ac015281816107dc015281816108400152818161101a0152818161108f01526112d501525f818161021b0152818161043e0152818161081f01528181610e3901528181610e6901528181610ff20152818161105901526112a901525f8181610351015281816106010152818161074e01528181610974015281816109d60152610e01015261165b5ff3fe608060405234801561000f575f5ffd5b5060043610610148575f3560e01c806378e97925116100bf578063b852204311610079578063b8522043146102d7578063c9dd3d6d146102ec578063db2e21bc14610329578063e20d810f14610331578063f2fde38b14610339578063fc2ea8a51461034c575f5ffd5b806378e97925146102165780638456cb591461023d578063893d20e8146102455780638da5cb5b146102695780639d76ea58146102795780639f4216e8146102a0575f5ffd5b8063421b2d8b11610110578063421b2d8b146101a95780635c60f226146101bc5780635c975abb146101cf5780636766d1ba146101e65780636f77926b146101ee578063715018a61461020e575f5ffd5b80631a39d8ef1461014c5780633197cbb6146101685780633884d6351461018f57806338e66d22146101995780633f4ba83a146101a1575b5f5ffd5b61015560035481565b6040519081526020015b60405180910390f35b6101557f000000000000000000000000000000000000000000000000000000000000000081565b610197610373565b005b6101556107a9565b610197610805565b6101976101b73660046114af565b610815565b6101976101ca3660046114af565b610ad2565b60025460ff165b604051901515815260200161015f565b610155610e36565b6102016101fc3660046114af565b610e8d565b60405161015f91906114dc565b610197610efd565b6101557f000000000000000000000000000000000000000000000000000000000000000081565b610197610f0e565b5f546001600160a01b03165b6040516001600160a01b03909116815260200161015f565b5f546001600160a01b0316610251565b6102517f000000000000000000000000000000000000000000000000000000000000000081565b6102b36102ae36600461150a565b610f1e565b6040805193845291151560208401526001600160a01b03169082015260600161015f565b6102df610f5d565b60405161015f9190611521565b6102f4610fea565b6040805196151587529415156020870152921515938501939093526060840152608083019190915260a082015260c00161015f565b6101976110d0565b6101d66112a6565b6101976103473660046114af565b6112fa565b6101557f000000000000000000000000000000000000000000000000000000000000000081565b335f8181526005602052604090206001015461010090046001600160a01b0316146103da5760405162461bcd60e51b81526020600482015260126024820152712cb7ba9030b932903737ba1030903ab9b2b960711b60448201526064015b60405180910390fd5b335f9081526005602052604090206001015460ff161561043c5760405162461bcd60e51b815260206004820152601860248201527f596f75206861766520616c726561647920636c61696d6564000000000000000060448201526064016103d1565b7f00000000000000000000000000000000000000000000000000000000000000004210156104ac5760405162461bcd60e51b815260206004820152601b60248201527f41697264726f7020686173206e6f74207374617274656420796574000000000060448201526064016103d1565b7f00000000000000000000000000000000000000000000000000000000000000004211156105105760405162461bcd60e51b8152602060048201526011602482015270105a5c991c9bdc081a185cc8195b991959607a1b60448201526064016103d1565b6040516370a0823160e01b81523060048201525f907f00000000000000000000000000000000000000000000000000000000000000006001600160a01b0316906370a0823190602401602060405180830381865afa158015610574573d5f5f3e3d5ffd5b505050506040513d601f19601f82011682018060405250810190610598919061158d565b116105e55760405162461bcd60e51b815260206004820152601a60248201527f496e73756666696369656e7420746f6b656e2062616c616e636500000000000060448201526064016103d1565b6105ed611334565b6105f5611358565b604080516060810182527f000000000000000000000000000000000000000000000000000000000000000080825260016020808401828152338587018181525f82815260059094529287902095518655905194909201805491516001600160a81b0319909216941515610100600160a81b031916949094176101006001600160a01b039283160217909355925163a9059cbb60e01b8152600481019390935260248301527f0000000000000000000000000000000000000000000000000000000000000000169063a9059cbb906044016020604051808303815f875af11580156106e1573d5f5f3e3d5ffd5b505050506040513d601f19601f8201168201806040525081019061070591906115a4565b6107495760405162461bcd60e51b8152602060048201526015602482015274151bdad95b881d1c985b9cd9995c8819985a5b1959605a1b60448201526064016103d1565b6040517f0000000000000000000000000000000000000000000000000000000000000000815233907f7bd6d4be1decdc27a9ed9c7ccdf5bb7cc38e31b3647b958c6b37162a2296c0fa9060200160405180910390a26107a760018055565b565b5f7f000000000000000000000000000000000000000000000000000000000000000042106107d657505f90565b610800427f00000000000000000000000000000000000000000000000000000000000000006115d7565b905090565b61080d611382565b6107a76113ae565b61081d611382565b7f00000000000000000000000000000000000000000000000000000000000000007f0000000000000000000000000000000000000000000000000000000000000000116108ac5760405162461bcd60e51b815260206004820152601b60248201527f41697264726f702068617320616c72656164792073746172746564000000000060448201526064016103d1565b6001600160a01b0381165f90815260056020526040902054156109075760405162461bcd60e51b81526020600482015260136024820152725573657220616c72656164792065786973747360681b60448201526064016103d1565b6001600160a01b0381165f9081526005602052604090206001015460ff16156109725760405162461bcd60e51b815260206004820152601760248201527f5573657220697320616c726561647920636c61696d656400000000000000000060448201526064016103d1565b7f000000000000000000000000000000000000000000000000000000000000000060035f8282546109a391906115d7565b9091555050600480546001600160a01b039283165f818152600660209081526040808320949094558351606080820186527f0000000000000000000000000000000000000000000000000000000000000000808352828401858152838801878152878752600586528887209451855590516001948501805492518c16610100908102610100600160a81b031993151584166001600160a81b0319958616171790915589519485018a5292845294830186815297830196875288549384018955979094525160029091027f8a35acfbc15ff81a39ae7d344fd709f28e8600b4aa8c65c6b64bfe7fe36bd19b81019190915593517f8a35acfbc15ff81a39ae7d344fd709f28e8600b4aa8c65c6b64bfe7fe36bd19c9094018054935190961690910292151516921691909117179055565b610ada611382565b6001600160a01b038082165f81815260056020526040902060010154610100900490911614610b3c5760405162461bcd60e51b815260206004820152600e60248201526d155cd95c881b9bdd08199bdd5b9960921b60448201526064016103d1565b6001600160a01b0381165f9081526005602052604090206001015460ff1615610ba75760405162461bcd60e51b815260206004820152601860248201527f557365722068617320616c726561647920636c61696d6564000000000000000060448201526064016103d1565b6001600160a01b0381165f908152600660205260409020546004548110610c055760405162461bcd60e51b8152602060048201526012602482015271092dcecc2d8d2c840eae6cae440d2dcc8caf60731b60448201526064016103d1565b816001600160a01b031660048281548110610c2257610c226115ea565b5f91825260209091206002909102016001015461010090046001600160a01b031614610c865760405162461bcd60e51b81526020600482015260136024820152720aae6cae440d2dcc8caf040dad2e6dac2e8c6d606b1b60448201526064016103d1565b600454610c95906001906115d7565b811015610d8d5760048054610cac906001906115d7565b81548110610cbc57610cbc6115ea565b905f5260205f20906002020160048281548110610cdb57610cdb6115ea565b5f9182526020822083546002909202019081556001928301805493909101805460ff909416151560ff1985168117825591546001600160a01b03610100918290041602610100600160a81b03199092166001600160a81b03199094169390931717909155600480548392600692909184908110610d5a57610d5a6115ea565b5f91825260208083206002929092029091016001015461010090046001600160a01b031683528201929092526040019020555b6004805480610d9e57610d9e6115fe565b5f828152602080822060025f1990940193840201828155600190810180546001600160a81b0319908116909155939094556001600160a01b03861682526006815260408083208390556005909152812081815590920180549091169055600380547f00000000000000000000000000000000000000000000000000000000000000009290610e2d908490611612565b90915550505050565b5f7f00000000000000000000000000000000000000000000000000000000000000004210610e6357505f90565b610800427f00000000000000000000000000000000000000000000000000000000000000006115d7565b604080516060810182525f8082526020820181905291810191909152610eb1611382565b506001600160a01b039081165f9081526005602090815260409182902082516060810184528154815260019091015460ff81161515928201929092526101009091049092169082015290565b610f05611382565b6107a75f611400565b610f16611382565b6107a761144f565b60048181548110610f2d575f80fd5b5f9182526020909120600290910201805460019091015490915060ff81169061010090046001600160a01b031683565b6060610f67611382565b6004805480602002602001604051908101604052809291908181526020015f905b82821015610fe1575f84815260209081902060408051606081018252600286029092018054835260019081015460ff811615158486015261010090046001600160a01b0316918301919091529083529092019101610f88565b50505050905090565b5f80808080807f0000000000000000000000000000000000000000000000000000000000000000429081108015917f000000000000000000000000000000000000000000000000000000000000000011159083908390611048575081155b905080838342866110825761107d427f00000000000000000000000000000000000000000000000000000000000000006115d7565b611084565b5f5b866110b8576110b3427f00000000000000000000000000000000000000000000000000000000000000006115d7565b6110ba565b5f5b949e939d50919b50995097509095509350505050565b6110d8611382565b6110e061148c565b6040516370a0823160e01b81523060048201525f907f00000000000000000000000000000000000000000000000000000000000000006001600160a01b0316906370a0823190602401602060405180830381865afa158015611144573d5f5f3e3d5ffd5b505050506040513d601f19601f82011682018060405250810190611168919061158d565b90505f81116111b15760405162461bcd60e51b81526020600482015260156024820152744e6f20746f6b656e7320746f20776974686472617760581b60448201526064016103d1565b7f00000000000000000000000000000000000000000000000000000000000000006001600160a01b031663a9059cbb6111f15f546001600160a01b031690565b6040516001600160e01b031960e084901b1681526001600160a01b039091166004820152602481018490526044016020604051808303815f875af115801561123b573d5f5f3e3d5ffd5b505050506040513d601f19601f8201168201806040525081019061125f91906115a4565b6112a35760405162461bcd60e51b8152602060048201526015602482015274151bdad95b881d1c985b9cd9995c8819985a5b1959605a1b60448201526064016103d1565b50565b5f7f000000000000000000000000000000000000000000000000000000000000000042101580156108005750507f000000000000000000000000000000000000000000000000000000000000000042111590565b611302611382565b6001600160a01b03811661132b57604051631e4fbdf760e01b81525f60048201526024016103d1565b6112a381611400565b60025460ff16156107a75760405163d93c066560e01b815260040160405180910390fd5b60026001540361137b57604051633ee5aeb560e01b815260040160405180910390fd5b6002600155565b5f546001600160a01b031633146107a75760405163118cdaa760e01b81523360048201526024016103d1565b6113b661148c565b6002805460ff191690557f5db9ee0a495bf2e6ff9c91a7834c1ba4fdd244a5e8aa4e537bd38aeae4b073aa335b6040516001600160a01b03909116815260200160405180910390a1565b5f80546001600160a01b038381166001600160a01b0319831681178455604051919092169283917f8be0079c531659141344cd1fd0a4f28419497f9722a3daafe3b4186f6b6457e09190a35050565b611457611334565b6002805460ff191660011790557f62e78cea01bee320cd4e420270b5ea74000d11b0c9f74754ebdbfc544b05a2586113e33390565b60025460ff166107a757604051638dfc202b60e01b815260040160405180910390fd5b5f602082840312156114bf575f5ffd5b81356001600160a01b03811681146114d5575f5ffd5b9392505050565b815181526020808301511515908201526040808301516001600160a01b031690820152606081015b92915050565b5f6020828403121561151a575f5ffd5b5035919050565b602080825282518282018190525f918401906040840190835b818110156115825761156c838551805182526020808201511515908301526040908101516001600160a01b0316910152565b602093909301926060929092019160010161153a565b509095945050505050565b5f6020828403121561159d575f5ffd5b5051919050565b5f602082840312156115b4575f5ffd5b815180151581146114d5575f5ffd5b634e487b7160e01b5f52601160045260245ffd5b81810381811115611504576115046115c3565b634e487b7160e01b5f52603260045260245ffd5b634e487b7160e01b5f52603160045260245ffd5b80820180821115611504576115046115c356fea264697066735822122069da45e22b79a724a5eadfc2b68f6578194b399b7602d06ad0d448c3682ff2af64736f6c634300081c0033",
  "linkReferences": {},
  "deployedLinkReferences": {},
  "immutableReferences": {
    "729": [
      {
        "length": 32,
        "start": 849
      },
      {
        "length": 32,
        "start": 1537
      },
      {
        "length": 32,
        "start": 1870
      },
      {
        "length": 32,
        "start": 2420
      },
      {
        "length": 32,
        "start": 2518
      },
      {
        "length": 32,
        "start": 3585
      }
    ],
    "731": [
      {
        "length": 32,
        "start": 539
      },
      {
        "length": 32,
        "start": 1086
      },
      {
        "length": 32,
        "start": 2079
      },
      {
        "length": 32,
        "start": 3641
      },
      {
        "length": 32,
        "start": 3689
      },
      {
        "length": 32,
        "start": 4082
      },
      {
        "length": 32,
        "start": 4185
      },
      {
        "length": 32,
        "start": 4777
      }
    ],
    "733": [
      {
        "length": 32,
        "start": 365
      },
      {
        "length": 32,
        "start": 1198
      },
      {
        "length": 32,
        "start": 1964
      },
      {
        "length": 32,
        "start": 2012
      },
      {
        "length": 32,
        "start": 2112
      },
      {
        "length": 32,
        "start": 4122
      },
      {
        "length": 32,
        "start": 4239
      },
      {
        "length": 32,
        "start": 4821
      }
    ],
    "738": [
      {
        "length": 32,
        "start": 638
      },
      {
        "length": 32,
        "start": 1319
      },
      {
        "length": 32,
        "start": 1691
      },
      {
        "length": 32,
        "start": 4343
      },
      {
        "length": 32,
        "start": 4531
      }
    ]
  },
  "inputSourceName": "project/contracts/Airdrop/airdrop.sol",
  "buildInfoId": "solc-0_8_28-6120906821bb67f156582be35d111e41a14ad3a5"
}