{
  "_format": "hh3-artifact-1",
  "contractName": "StakingContract",
  "sourceName": "contracts/Staking/staking.sol",
  "abi": [
    {
      "inputs": [
        {
          "internalType": "address",
          "name": "_stakingToken",
          "type": "address"
        },
        {
          "internalType": "address",
          "name": "_rewardToken",
          "type": "address"
        }
      ],
      "stateMutability": "nonpayable",
      "type": "constructor"
    },
    {
      "inputs": [],
      "name": "EnforcedPause",
      "type": "error"
    },
    {
      "inputs": [],
      "name": "ExpectedPause",
      "type": "error"
    },
    {
      "inputs": [
        {
          "internalType": "address",
          "name": "owner",
          "type": "address"
        }
      ],
      "name": "OwnableInvalidOwner",
      "type": "error"
    },
    {
      "inputs": [
        {
          "internalType": "address",
          "name": "account",
          "type": "address"
        }
      ],
      "name": "OwnableUnauthorizedAccount",
      "type": "error"
    },
    {
      "inputs": [],
      "name": "ReentrancyGuardReentrantCall",
      "type": "error"
    },
    {
      "anonymous": false,
      "inputs": [
        {
          "indexed": true,
          "internalType": "address",
          "name": "user",
          "type": "address"
        },
        {
          "indexed": false,
          "internalType": "uint256",
          "name": "amount",
          "type": "uint256"
        }
      ],
      "name": "EmergencyWithdraw",
      "type": "event"
    },
    {
      "anonymous": false,
      "inputs": [
        {
          "indexed": true,
          "internalType": "address",
          "name": "previousOwner",
          "type": "address"
        },
        {
          "indexed": true,
          "internalType": "address",
          "name": "newOwner",
          "type": "address"
        }
      ],
      "name": "OwnershipTransferred",
      "type": "event"
    },
    {
      "anonymous": false,
      "inputs": [
        {
          "indexed": false,
          "internalType": "address",
          "name": "account",
          "type": "address"
        }
      ],
      "name": "Paused",
      "type": "event"
    },
    {
      "anonymous": false,
      "inputs": [
        {
          "indexed": true,
          "internalType": "address",
          "name": "user",
          "type": "address"
        },
        {
          "indexed": false,
          "internalType": "uint256",
          "name": "amount",
          "type": "uint256"
        }
      ],
      "name": "RewardClaimed",
      "type": "event"
    },
    {
      "anonymous": false,
      "inputs": [
        {
          "indexed": false,
          "internalType": "uint256",
          "name": "newRate",
          "type": "uint256"
        }
      ],
      "name": "RewardRateUpdated",
      "type": "event"
    },
    {
      "anonymous": false,
      "inputs": [
        {
          "indexed": true,
          "internalType": "address",
          "name": "user",
          "type": "address"
        },
        {
          "indexed": false,
          "internalType": "uint256",
          "name": "amount",
          "type": "uint256"
        },
        {
          "indexed": false,
          "internalType": "uint256",
          "name": "tier",
          "type": "uint256"
        },
        {
          "indexed": false,
          "internalType": "uint256",
          "name": "stakeId",
          "type": "uint256"
        }
      ],
      "name": "Staked",
      "type": "event"
    },
    {
      "anonymous": false,
      "inputs": [
        {
          "indexed": false,
          "internalType": "uint256",
          "name": "tierId",
          "type": "uint256"
        },
        {
          "indexed": false,
          "internalType": "uint256",
          "name": "duration",
          "type": "uint256"
        },
        {
          "indexed": false,
          "internalType": "uint256",
          "name": "multiplier",
          "type": "uint256"
        }
      ],
      "name": "StakingTierAdded",
      "type": "event"
    },
    {
      "anonymous": false,
      "inputs": [
        {
          "indexed": false,
          "internalType": "uint256",
          "name": "tierId",
          "type": "uint256"
        },
        {
          "indexed": false,
          "internalType": "bool",
          "name": "active",
          "type": "bool"
        }
      ],
      "name": "StakingTierUpdated",
      "type": "event"
    },
    {
      "anonymous": false,
      "inputs": [
        {
          "indexed": false,
          "internalType": "address",
          "name": "account",
          "type": "address"
        }
      ],
      "name": "Unpaused",
      "type": "event"
    },
    {
      "anonymous": false,
      "inputs": [
        {
          "indexed": true,
          "internalType": "address",
          "name": "user",
          "type": "address"
        },
        {
          "indexed": false,
          "internalType": "uint256",
          "name": "amount",
          "type": "uint256"
        },
        {
          "indexed": false,
          "internalType": "uint256",
          "name": "stakeId",
          "type": "uint256"
        }
      ],
      "name": "Unstaked",
      "type": "event"
    },
    {
      "inputs": [],
      "name": "MAX_STAKE_AMOUNT",
      "outputs": [
        {
          "internalType": "uint256",
          "name": "",
          "type": "uint256"
        }
      ],
      "stateMutability": "view",
      "type": "function"
    },
    {
      "inputs": [],
      "name": "MIN_STAKE_AMOUNT",
      "outputs": [
        {
          "internalType": "uint256",
          "name": "",
          "type": "uint256"
        }
      ],
      "stateMutability": "view",
      "type": "function"
    },
    {
      "inputs": [],
      "name": "REWARD_RATE_DECIMALS",
      "outputs": [
        {
          "internalType": "uint256",
          "name": "",
          "type": "uint256"
        }
      ],
      "stateMutability": "view",
      "type": "function"
    },
    {
      "inputs": [
        {
          "internalType": "uint256",
          "name": "duration",
          "type": "uint256"
        },
        {
          "internalType": "uint256",
          "name": "multiplier",
          "type": "uint256"
        }
      ],
      "name": "addStakingTier",
      "outputs": [],
      "stateMutability": "nonpayable",
      "type": "function"
    },
    {
      "inputs": [
        {
          "internalType": "address",
          "name": "user",
          "type": "address"
        },
        {
          "internalType": "uint256",
          "name": "stakeId",
          "type": "uint256"
        }
      ],
      "name": "canUnstake",
      "outputs": [
        {
          "internalType": "bool",
          "name": "",
          "type": "bool"
        }
      ],
      "stateMutability": "view",
      "type": "function"
    },
    {
      "inputs": [],
      "name": "claimRewards",
      "outputs": [],
      "stateMutability": "nonpayable",
      "type": "function"
    },
    {
      "inputs": [
        {
          "internalType": "uint256",
          "name": "amount",
          "type": "uint256"
        }
      ],
      "name": "depositRewards",
      "outputs": [],
      "stateMutability": "nonpayable",
      "type": "function"
    },
    {
      "inputs": [
        {
          "internalType": "address",
          "name": "account",
          "type": "address"
        }
      ],
      "name": "earned",
      "outputs": [
        {
          "internalType": "uint256",
          "name": "",
          "type": "uint256"
        }
      ],
      "stateMutability": "view",
      "type": "function"
    },
    {
      "inputs": [
        {
          "internalType": "address",
          "name": "user",
          "type": "address"
        },
        {
          "internalType": "uint256",
          "name": "stakeId",
          "type": "uint256"
        }
      ],
      "name": "emergencyUnstake",
      "outputs": [],
      "stateMutability": "nonpayable",
      "type": "function"
    },
    {
      "inputs": [
        {
          "internalType": "address",
          "name": "token",
          "type": "address"
        },
        {
          "internalType": "uint256",
          "name": "amount",
          "type": "uint256"
        }
      ],
      "name": "emergencyWithdrawToken",
      "outputs": [],
      "stateMutability": "nonpayable",
      "type": "function"
    },
    {
      "inputs": [
        {
          "internalType": "address",
          "name": "user",
          "type": "address"
        },
        {
          "internalType": "uint256",
          "name": "stakeId",
          "type": "uint256"
        }
      ],
      "name": "getUserStake",
      "outputs": [
        {
          "components": [
            {
              "internalType": "uint256",
              "name": "amount",
              "type": "uint256"
            },
            {
              "internalType": "uint256",
              "name": "tier",
              "type": "uint256"
            },
            {
              "internalType": "uint256",
              "name": "startTime",
              "type": "uint256"
            },
            {
              "internalType": "uint256",
              "name": "lastClaimTime",
              "type": "uint256"
            },
            {
              "internalType": "uint256",
              "name": "rewardDebt",
              "type": "uint256"
            },
            {
              "internalType": "bool",
              "name": "active",
              "type": "bool"
            }
          ],
          "internalType": "struct StakingContract.StakingInfo",
          "name": "",
          "type": "tuple"
        }
      ],
      "stateMutability": "view",
      "type": "function"
    },
    {
      "inputs": [
        {
          "internalType": "address",
          "name": "user",
          "type": "address"
        }
      ],
      "name": "getUserStakeCount",
      "outputs": [
        {
          "internalType": "uint256",
          "name": "",
          "type": "uint256"
        }
      ],
      "stateMutability": "view",
      "type": "function"
    },
    {
      "inputs": [
        {
          "internalType": "address",
          "name": "user",
          "type": "address"
        }
      ],
      "name": "getUserTotalStaked",
      "outputs": [
        {
          "internalType": "uint256",
          "name": "",
          "type": "uint256"
        }
      ],
      "stateMutability": "view",
      "type": "function"
    },
    {
      "inputs": [],
      "name": "lastTimeRewardApplicable",
      "outputs": [
        {
          "internalType": "uint256",
          "name": "",
          "type": "uint256"
        }
      ],
      "stateMutability": "view",
      "type": "function"
    },
    {
      "inputs": [],
      "name": "lastUpdateTime",
      "outputs": [
        {
          "internalType": "uint256",
          "name": "",
          "type": "uint256"
        }
      ],
      "stateMutability": "view",
      "type": "function"
    },
    {
      "inputs": [],
      "name": "owner",
      "outputs": [
        {
          "internalType": "address",
          "name": "",
          "type": "address"
        }
      ],
      "stateMutability": "view",
      "type": "function"
    },
    {
      "inputs": [],
      "name": "pause",
      "outputs": [],
      "stateMutability": "nonpayable",
      "type": "function"
    },
    {
      "inputs": [],
      "name": "paused",
      "outputs": [
        {
          "internalType": "bool",
          "name": "",
          "type": "bool"
        }
      ],
      "stateMutability": "view",
      "type": "function"
    },
    {
      "inputs": [],
      "name": "renounceOwnership",
      "outputs": [],
      "stateMutability": "nonpayable",
      "type": "function"
    },
    {
      "inputs": [],
      "name": "rewardPerToken",
      "outputs": [
        {
          "internalType": "uint256",
          "name": "",
          "type": "uint256"
        }
      ],
      "stateMutability": "view",
      "type": "function"
    },
    {
      "inputs": [],
      "name": "rewardPerTokenStored",
      "outputs": [
        {
          "internalType": "uint256",
          "name": "",
          "type": "uint256"
        }
      ],
      "stateMutability": "view",
      "type": "function"
    },
    {
      "inputs": [],
      "name": "rewardRate",
      "outputs": [
        {
          "internalType": "uint256",
          "name": "",
          "type": "uint256"
        }
      ],
      "stateMutability": "view",
      "type": "function"
    },
    {
      "inputs": [],
      "name": "rewardToken",
      "outputs": [
        {
          "internalType": "contract IERC20",
          "name": "",
          "type": "address"
        }
      ],
      "stateMutability": "view",
      "type": "function"
    },
    {
      "inputs": [
        {
          "internalType": "address",
          "name": "",
          "type": "address"
        }
      ],
      "name": "rewards",
      "outputs": [
        {
          "internalType": "uint256",
          "name": "",
          "type": "uint256"
        }
      ],
      "stateMutability": "view",
      "type": "function"
    },
    {
      "inputs": [
        {
          "internalType": "uint256",
          "name": "amount",
          "type": "uint256"
        },
        {
          "internalType": "uint256",
          "name": "tier",
          "type": "uint256"
        }
      ],
      "name": "stake",
      "outputs": [],
      "stateMutability": "nonpayable",
      "type": "function"
    },
    {
      "inputs": [
        {
          "internalType": "uint256",
          "name": "",
          "type": "uint256"
        }
      ],
      "name": "stakingTiers",
      "outputs": [
        {
          "internalType": "uint256",
          "name": "duration",
          "type": "uint256"
        },
        {
          "internalType": "uint256",
          "name": "multiplier",
          "type": "uint256"
        },
        {
          "internalType": "bool",
          "name": "active",
          "type": "bool"
        }
      ],
      "stateMutability": "view",
      "type": "function"
    },
    {
      "inputs": [],
      "name": "stakingToken",
      "outputs": [
        {
          "internalType": "contract IERC20",
          "name": "",
          "type": "address"
        }
      ],
      "stateMutability": "view",
      "type": "function"
    },
    {
      "inputs": [],
      "name": "tierCount",
      "outputs": [
        {
          "internalType": "uint256",
          "name": "",
          "type": "uint256"
        }
      ],
      "stateMutability": "view",
      "type": "function"
    },
    {
      "inputs": [],
      "name": "totalRewardsDistributed",
      "outputs": [
        {
          "internalType": "uint256",
          "name": "",
          "type": "uint256"
        }
      ],
      "stateMutability": "view",
      "type": "function"
    },
    {
      "inputs": [],
      "name": "totalStaked",
      "outputs": [
        {
          "internalType": "uint256",
          "name": "",
          "type": "uint256"
        }
      ],
      "stateMutability": "view",
      "type": "function"
    },
    {
      "inputs": [
        {
          "internalType": "address",
          "name": "newOwner",
          "type": "address"
        }
      ],
      "name": "transferOwnership",
      "outputs": [],
      "stateMutability": "nonpayable",
      "type": "function"
    },
    {
      "inputs": [],
      "name": "unpause",
      "outputs": [],
      "stateMutability": "nonpayable",
      "type": "function"
    },
    {
      "inputs": [
        {
          "internalType": "uint256",
          "name": "stakeId",
          "type": "uint256"
        }
      ],
      "name": "unstake",
      "outputs": [],
      "stateMutability": "nonpayable",
      "type": "function"
    },
    {
      "inputs": [
        {
          "internalType": "uint256",
          "name": "newRate",
          "type": "uint256"
        }
      ],
      "name": "updateRewardRate",
      "outputs": [],
      "stateMutability": "nonpayable",
      "type": "function"
    },
    {
      "inputs": [
        {
          "internalType": "uint256",
          "name": "tierId",
          "type": "uint256"
        },
        {
          "internalType": "bool",
          "name": "active",
          "type": "bool"
        }
      ],
      "name": "updateStakingTier",
      "outputs": [],
      "stateMutability": "nonpayable",
      "type": "function"
    },
    {
      "inputs": [
        {
          "internalType": "address",
          "name": "",
          "type": "address"
        }
      ],
      "name": "userRewardPerTokenPaid",
      "outputs": [
        {
          "internalType": "uint256",
          "name": "",
          "type": "uint256"
        }
      ],
      "stateMutability": "view",
      "type": "function"
    },
    {
      "inputs": [
        {
          "internalType": "address",
          "name": "",
          "type": "address"
        },
        {
          "internalType": "uint256",
          "name": "",
          "type": "uint256"
        }
      ],
      "name": "userStakes",
      "outputs": [
        {
          "internalType": "uint256",
          "name": "amount",
          "type": "uint256"
        },
        {
          "internalType": "uint256",
          "name": "tier",
          "type": "uint256"
        },
        {
          "internalType": "uint256",
          "name": "startTime",
          "type": "uint256"
        },
        {
          "internalType": "uint256",
          "name": "lastClaimTime",
          "type": "uint256"
        },
        {
          "internalType": "uint256",
          "name": "rewardDebt",
          "type": "uint256"
        },
        {
          "internalType": "bool",
          "name": "active",
          "type": "bool"
        }
      ],
      "stateMutability": "view",
      "type": "function"
    }
  ],
  "bytecode": "0x60c06040526103e8600455348015610015575f5ffd5b5060405161239f38038061239f8339810160408190526100349161030f565b60015f55338061005e57604051631e4fbdf760e01b81525f60048201526024015b60405180910390fd5b6100678161016f565b506001600160a01b0382166100be5760405162461bcd60e51b815260206004820152601d60248201527f496e76616c6964207374616b696e6720746f6b656e20616464726573730000006044820152606401610055565b6001600160a01b0381166101145760405162461bcd60e51b815260206004820152601c60248201527f496e76616c69642072657761726420746f6b656e2061646472657373000000006044820152606401610055565b6001600160a01b03808316608052811660a0524260055561013a62278d006127106101c8565b6101496276a700613a986101c8565b61015862ed4e00614e206101c8565b6101686301e133806175306101c8565b5050610364565b600180546001600160a01b03838116610100818102610100600160a81b031985161790945560405193909204169182907f8be0079c531659141344cd1fd0a4f28419497f9722a3daafe3b4186f6b6457e0905f90a35050565b5f821161020a5760405162461bcd60e51b815260206004820152601060248201526f24b73b30b634b210323ab930ba34b7b760811b6044820152606401610055565b5f811161024e5760405162461bcd60e51b815260206004820152601260248201527124b73b30b634b21036bab63a34b83634b2b960711b6044820152606401610055565b604080516060808201835284825260208083018581526001848601818152600880545f9081526007865288902096518755925191860191909155516002909401805460ff191694151594909417909355915483519081529182018590529181018390527f40d8fd7714792abf1d4ac835462b6cf6f0170b87d65e38e5e407f1e35862f4b8910160405180910390a160088054905f6102eb83610340565b91905055505050565b80516001600160a01b038116811461030a575f5ffd5b919050565b5f5f60408385031215610320575f5ffd5b610329836102f4565b9150610337602084016102f4565b90509250929050565b5f6001820161035d57634e487b7160e01b5f52601160045260245ffd5b5060010190565b60805160a051611fcd6103d25f395f818161056f0152818161095b01528181610a68015281816113b101528181611484015261155e01525f818161034d015281816107d101528181610c5701528181610ff8015281816110d4015281816111ae01526116b70152611fcd5ff3fe608060405234801561000f575f5ffd5b506004361061021d575f3560e01c806380faa57d1161012a578063b5d5b5fa116100b4578063d8e3968511610079578063d8e3968514610532578063df136d6514610545578063ee1725461461054e578063f2fde38b14610557578063f7c618c11461056a575f5ffd5b8063b5d5b5fa14610431578063c8f33c9114610473578063cd3daf9d1461047c578063cec695fa14610484578063d50267ee146104e4575f5ffd5b80638bdf67f2116100fa5780638bdf67f2146103d95780638da5cb5b146103ec57806396b55f7d146104025780639ef3a2611461040b578063a4c3b0911461041e575f5ffd5b806380faa57d146103a3578063817b1cd2146103a95780638456cb59146103b25780638b876347146103ba575f5ffd5b80633f4ba83a116101ab5780636e2f16961161017b5780636e2f16961461032d578063715018a61461034057806372f702f3146103485780637b0472f0146103875780637b0a47ee1461039a575f5ffd5b80633f4ba83a146102e85780634268121e146102f05780635c975abb146103035780635e598d121461031a575f5ffd5b806327ed7188116101f157806327ed7188146102a35780632e17de78146102b35780632f92f1f2146102c6578063372500ab146102d75780633a48aa19146102df575f5ffd5b80628cc262146102215780630700037d14610247578063111a9802146102665780631b545a171461027b575b5f5ffd5b61023461022f366004611de5565b610591565b6040519081526020015b60405180910390f35b610234610255366004611de5565b600b6020525f908152604090205481565b610279610274366004611e05565b6105fd565b005b610234610289366004611de5565b6001600160a01b03165f9081526009602052604090205490565b61023468056bc75e2d6310000081565b6102796102c1366004611e25565b610613565b61023469d3c21bcecceda100000081565b61027961088f565b61023461271081565b610279610b1d565b6102796102fe366004611e3c565b610b2d565b60015460ff165b604051901515815260200161023e565b61030a610328366004611e3c565b610d0f565b61023461033b366004611de5565b610e08565b610279610e12565b61036f7f000000000000000000000000000000000000000000000000000000000000000081565b6040516001600160a01b03909116815260200161023e565b610279610395366004611e05565b610e23565b61023460045481565b42610234565b61023460025481565b610279611333565b6102346103c8366004611de5565b600a6020525f908152604090205481565b6102796103e7366004611e25565b611343565b60015461010090046001600160a01b031661036f565b61023460085481565b610279610419366004611e25565b6115d0565b61027961042c366004611e3c565b6116ad565b61044461043f366004611e3c565b6117d0565b6040805196875260208701959095529385019290925260608401526080830152151560a082015260c00161023e565b61023460055481565b610234611823565b610497610492366004611e3c565b61188c565b60405161023e91905f60c082019050825182526020830151602083015260408301516040830152606083015160608301526080830151608083015260a0830151151560a083015292915050565b6105156104f2366004611e25565b60076020525f908152604090208054600182015460029092015490919060ff1683565b60408051938452602084019290925215159082015260600161023e565b610279610540366004611e71565b611981565b61023460065481565b61023460035481565b610279610565366004611de5565b611a20565b61036f7f000000000000000000000000000000000000000000000000000000000000000081565b6001600160a01b0381165f908152600b6020908152604080832054600a909252822054670de0b6b3a7640000906105c6611823565b6105d09190611eb3565b6105d985611a5a565b6105e39190611ec6565b6105ed9190611edd565b6105f79190611efc565b92915050565b610605611b16565b61060f8282611b49565b5050565b61061b611c75565b610623611c99565b3361062c611823565b600655426005556001600160a01b038116156106765761064b81610591565b6001600160a01b0382165f908152600b6020908152604080832093909355600654600a909152919020555b335f9081526009602052604090205482106106ac5760405162461bcd60e51b81526004016106a390611f0f565b60405180910390fd5b335f9081526009602052604081208054849081106106cc576106cc611f39565b5f9182526020909120600690910201600581015490915060ff166107255760405162461bcd60e51b815260206004820152601060248201526f5374616b65206e6f742061637469766560801b60448201526064016106a3565b60018101545f9081526007602052604081205460028301546107479190611efc565b90508042101561078e5760405162461bcd60e51b815260206004820152601260248201527114dd185ad9481cdd1a5b1b081b1bd8dad95960721b60448201526064016106a3565b815460058301805460ff19169055600280548291905f906107b0908490611eb3565b909155505060405163a9059cbb60e01b8152336004820152602481018290527f00000000000000000000000000000000000000000000000000000000000000006001600160a01b03169063a9059cbb906044016020604051808303815f875af115801561081f573d5f5f3e3d5ffd5b505050506040513d601f19601f820116820180604052508101906108439190611f4d565b50604080518281526020810187905233917f7fc4727e062e336010f2c282598ef5f14facb3de68cf8195c2f23e1454b2b74e910160405180910390a25050505061088c60015f55565b50565b610897611c75565b61089f611c99565b336108a8611823565b600655426005556001600160a01b038116156108f2576108c781610591565b6001600160a01b0382165f908152600b6020908152604080832093909355600654600a909152919020555b335f908152600b6020526040902054806109445760405162461bcd60e51b81526020600482015260136024820152724e6f207265776172647320746f20636c61696d60681b60448201526064016106a3565b6040516370a0823160e01b815230600482015281907f00000000000000000000000000000000000000000000000000000000000000006001600160a01b0316906370a0823190602401602060405180830381865afa1580156109a8573d5f5f3e3d5ffd5b505050506040513d601f19601f820116820180604052508101906109cc9190611f68565b1015610a245760405162461bcd60e51b815260206004820152602160248201527f496e73756666696369656e742072657761726420746f6b656e2062616c616e636044820152606560f81b60648201526084016106a3565b335f908152600b6020526040812081905560038054839290610a47908490611efc565b909155505060405163a9059cbb60e01b8152336004820152602481018290527f00000000000000000000000000000000000000000000000000000000000000006001600160a01b03169063a9059cbb906044016020604051808303815f875af1158015610ab6573d5f5f3e3d5ffd5b505050506040513d601f19601f82011682018060405250810190610ada9190611f4d565b5060405181815233907f106f923f993c2149d49b4255ff723acafa1f2d94393f561d3eda32ae348f72419060200160405180910390a25050610b1b60015f55565b565b610b25611b16565b610b1b611cc1565b610b35611b16565b6001600160a01b0382165f908152600960205260409020548110610b6b5760405162461bcd60e51b81526004016106a390611f0f565b6001600160a01b0382165f908152600960205260408120805483908110610b9457610b94611f39565b5f9182526020909120600690910201600581015490915060ff16610bed5760405162461bcd60e51b815260206004820152601060248201526f5374616b65206e6f742061637469766560801b60448201526064016106a3565b805460058201805460ff19169055600280548291905f90610c0f908490611eb3565b909155505f9050610c21600283611edd565b90505f610c2e8284611eb3565b60405163a9059cbb60e01b81526001600160a01b038881166004830152602482018390529192507f00000000000000000000000000000000000000000000000000000000000000009091169063a9059cbb906044016020604051808303815f875af1158015610c9f573d5f5f3e3d5ffd5b505050506040513d601f19601f82011682018060405250810190610cc39190611f4d565b50856001600160a01b03167f5fafa99d0643513820be26656b45130b01e1c03062e1266bf36f88cbd3bd969582604051610cff91815260200190565b60405180910390a2505050505050565b6001600160a01b0382165f908152600960205260408120548210610d455760405162461bcd60e51b81526004016106a390611f0f565b6001600160a01b0383165f908152600960205260408120805484908110610d6e57610d6e611f39565b5f9182526020918290206040805160c081018252600690930290910180548352600181015493830193909352600283015490820152600382015460608201526004820154608082015260059091015460ff16151560a08201819052909150610dd9575f9150506105f7565b6020808201515f908152600790915260408082205490830151610dfc9190611efc565b42101595945050505050565b5f6105f782611a5a565b610e1a611b16565b610b1b5f611d13565b610e2b611c75565b610e33611c99565b33610e3c611823565b600655426005556001600160a01b03811615610e8657610e5b81610591565b6001600160a01b0382165f908152600b6020908152604080832093909355600654600a909152919020555b68056bc75e2d63100000831015610edf5760405162461bcd60e51b815260206004820152601a60248201527f416d6f756e742062656c6f77206d696e696d756d207374616b6500000000000060448201526064016106a3565b69d3c21bcecceda1000000831115610f395760405162461bcd60e51b815260206004820152601c60248201527f416d6f756e742065786365656473206d6178696d756d207374616b650000000060448201526064016106a3565b6008548210610f815760405162461bcd60e51b815260206004820152601460248201527324b73b30b634b21039ba30b5b4b733903a34b2b960611b60448201526064016106a3565b5f8281526007602052604090206002015460ff16610fe15760405162461bcd60e51b815260206004820152601760248201527f5374616b696e672074696572206e6f742061637469766500000000000000000060448201526064016106a3565b6040516370a0823160e01b815233600482015283907f00000000000000000000000000000000000000000000000000000000000000006001600160a01b0316906370a0823190602401602060405180830381865afa158015611045573d5f5f3e3d5ffd5b505050506040513d601f19601f820116820180604052508101906110699190611f68565b10156110b75760405162461bcd60e51b815260206004820152601a60248201527f496e73756666696369656e7420746f6b656e2062616c616e636500000000000060448201526064016106a3565b604051636eb1769f60e11b815233600482015230602482015283907f00000000000000000000000000000000000000000000000000000000000000006001600160a01b03169063dd62ed3e90604401602060405180830381865afa158015611121573d5f5f3e3d5ffd5b505050506040513d601f19601f820116820180604052508101906111459190611f68565b101561118c5760405162461bcd60e51b8152602060048201526016602482015275496e73756666696369656e7420616c6c6f77616e636560501b60448201526064016106a3565b6040516323b872dd60e01b8152336004820152306024820152604481018490527f00000000000000000000000000000000000000000000000000000000000000006001600160a01b0316906323b872dd906064016020604051808303815f875af11580156111fc573d5f5f3e3d5ffd5b505050506040513d601f19601f820116820180604052508101906112209190611f4d565b506040805160c081018252848152602080820185815242838501818152606085019182525f60808601818152600160a08801818152338452600988529883208054808301825590845296832088516006909802019687559451948601949094559051600280860191909155915160038501559151600484015593516005909201805460ff1916921515929092179091558254919286929091906112c4908490611efc565b9091555050335f818152600960205260409020547fb4caaf29adda3eefee3ad552a8e85058589bf834c7466cae4ee58787f70589ed908690869061130a90600190611eb3565b6040805193845260208401929092529082015260600160405180910390a2505061060f60015f55565b61133b611b16565b610b1b611d6c565b61134b611b16565b5f811161139a5760405162461bcd60e51b815260206004820152601d60248201527f416d6f756e74206d7573742062652067726561746572207468616e203000000060448201526064016106a3565b6040516370a0823160e01b815233600482015281907f00000000000000000000000000000000000000000000000000000000000000006001600160a01b0316906370a0823190602401602060405180830381865afa1580156113fe573d5f5f3e3d5ffd5b505050506040513d601f19601f820116820180604052508101906114229190611f68565b10156114675760405162461bcd60e51b8152602060048201526014602482015273496e73756666696369656e742062616c616e636560601b60448201526064016106a3565b604051636eb1769f60e11b815233600482015230602482015281907f00000000000000000000000000000000000000000000000000000000000000006001600160a01b03169063dd62ed3e90604401602060405180830381865afa1580156114d1573d5f5f3e3d5ffd5b505050506040513d601f19601f820116820180604052508101906114f59190611f68565b101561153c5760405162461bcd60e51b8152602060048201526016602482015275496e73756666696369656e7420616c6c6f77616e636560501b60448201526064016106a3565b6040516323b872dd60e01b8152336004820152306024820152604481018290527f00000000000000000000000000000000000000000000000000000000000000006001600160a01b0316906323b872dd906064016020604051808303815f875af11580156115ac573d5f5f3e3d5ffd5b505050506040513d601f19601f8201168201806040525081019061060f9190611f4d565b6115d8611b16565b5f6115e1611823565b600655426005556001600160a01b0381161561162b5761160081610591565b6001600160a01b0382165f908152600b6020908152604080832093909355600654600a909152919020555b5f82116116705760405162461bcd60e51b8152602060048201526013602482015272496e76616c696420726577617264207261746560681b60448201526064016106a3565b60048290556040518281527f41d466ebd06fb97e7786086ac8b69b7eb7da798592036251291d34e9791cde01906020015b60405180910390a15050565b6116b5611b16565b7f00000000000000000000000000000000000000000000000000000000000000006001600160a01b0316826001600160a01b0316036117365760405162461bcd60e51b815260206004820152601d60248201527f43616e6e6f74207769746864726177207374616b696e6720746f6b656e00000060448201526064016106a3565b816001600160a01b031663a9059cbb61175d6001546001600160a01b036101009091041690565b6040516001600160e01b031960e084901b1681526001600160a01b039091166004820152602481018490526044016020604051808303815f875af11580156117a7573d5f5f3e3d5ffd5b505050506040513d601f19601f820116820180604052508101906117cb9190611f4d565b505050565b6009602052815f5260405f2081815481106117e9575f80fd5b5f91825260209091206006909102018054600182015460028301546003840154600485015460059095015493965091945092909160ff1686565b5f6002545f03611834575060065490565b6002546118449062015180611ec6565b6004546005546118549042611eb3565b61185e9190611ec6565b61187090670de0b6b3a7640000611ec6565b61187a9190611edd565b6006546118879190611efc565b905090565b6118c16040518060c001604052805f81526020015f81526020015f81526020015f81526020015f81526020015f151581525090565b6001600160a01b0383165f9081526009602052604090205482106118f75760405162461bcd60e51b81526004016106a390611f0f565b6001600160a01b0383165f90815260096020526040902080548390811061192057611920611f39565b5f9182526020918290206040805160c081018252600690930290910180548352600181015493830193909352600283015490820152600382015460608201526004820154608082015260059091015460ff16151560a0820152905092915050565b611989611b16565b60085482106119cc5760405162461bcd60e51b815260206004820152600f60248201526e125b9d985b1a59081d1a595c881251608a1b60448201526064016106a3565b5f82815260076020908152604091829020600201805460ff19168415159081179091558251858152918201527f7c70541ab37536a584e06d8ed280be8d1c93de8533275aa344de3429183f863591016116a1565b611a28611b16565b6001600160a01b038116611a5157604051631e4fbdf760e01b81525f60048201526024016106a3565b61088c81611d13565b5f80805b6001600160a01b0384165f90815260096020526040902054811015611b0f576001600160a01b0384165f908152600960205260409020805482908110611aa657611aa6611f39565b5f91825260209091206005600690920201015460ff1615611b07576001600160a01b0384165f908152600960205260409020805482908110611aea57611aea611f39565b905f5260205f2090600602015f015482611b049190611efc565b91505b600101611a5e565b5092915050565b6001546001600160a01b03610100909104163314610b1b5760405163118cdaa760e01b81523360048201526024016106a3565b5f8211611b8b5760405162461bcd60e51b815260206004820152601060248201526f24b73b30b634b210323ab930ba34b7b760811b60448201526064016106a3565b5f8111611bcf5760405162461bcd60e51b815260206004820152601260248201527124b73b30b634b21036bab63a34b83634b2b960711b60448201526064016106a3565b604080516060808201835284825260208083018581526001848601818152600880545f9081526007865288902096518755925191860191909155516002909401805460ff191694151594909417909355915483519081529182018590529181018390527f40d8fd7714792abf1d4ac835462b6cf6f0170b87d65e38e5e407f1e35862f4b8910160405180910390a160088054905f611c6c83611f7f565b91905055505050565b60015460ff1615610b1b5760405163d93c066560e01b815260040160405180910390fd5b60025f5403611cbb57604051633ee5aeb560e01b815260040160405180910390fd5b60025f55565b611cc9611da7565b6001805460ff191690557f5db9ee0a495bf2e6ff9c91a7834c1ba4fdd244a5e8aa4e537bd38aeae4b073aa335b6040516001600160a01b03909116815260200160405180910390a1565b600180546001600160a01b03838116610100818102610100600160a81b031985161790945560405193909204169182907f8be0079c531659141344cd1fd0a4f28419497f9722a3daafe3b4186f6b6457e0905f90a35050565b611d74611c75565b6001805460ff1916811790557f62e78cea01bee320cd4e420270b5ea74000d11b0c9f74754ebdbfc544b05a25833611cf6565b60015460ff16610b1b57604051638dfc202b60e01b815260040160405180910390fd5b80356001600160a01b0381168114611de0575f5ffd5b919050565b5f60208284031215611df5575f5ffd5b611dfe82611dca565b9392505050565b5f5f60408385031215611e16575f5ffd5b50508035926020909101359150565b5f60208284031215611e35575f5ffd5b5035919050565b5f5f60408385031215611e4d575f5ffd5b611e5683611dca565b946020939093013593505050565b801515811461088c575f5ffd5b5f5f60408385031215611e82575f5ffd5b823591506020830135611e9481611e64565b809150509250929050565b634e487b7160e01b5f52601160045260245ffd5b818103818111156105f7576105f7611e9f565b80820281158282048414176105f7576105f7611e9f565b5f82611ef757634e487b7160e01b5f52601260045260245ffd5b500490565b808201808211156105f7576105f7611e9f565b60208082526010908201526f125b9d985b1a59081cdd185ad948125160821b604082015260600190565b634e487b7160e01b5f52603260045260245ffd5b5f60208284031215611f5d575f5ffd5b8151611dfe81611e64565b5f60208284031215611f78575f5ffd5b5051919050565b5f60018201611f9057611f90611e9f565b506001019056fea2646970667358221220f83cc43cb278fc843cddac92e0a5687491cd765c7ffc7492c8be7261ecc8e17a64736f6c634300081c0033",
  "linkReferences": {},
  "deployedLinkReferences": {},
  "immutableReferences": {
    "448": [
      {
        "length": 32,
        "start": 845
      },
      {
        "length": 32,
        "start": 2001
      },
      {
        "length": 32,
        "start": 3159
      },
      {
        "length": 32,
        "start": 4088
      },
      {
        "length": 32,
        "start": 4308
      },
      {
        "length": 32,
        "start": 4526
      },
      {
        "length": 32,
        "start": 5815
      }
    ],
    "451": [
      {
        "length": 32,
        "start": 1391
      },
      {
        "length": 32,
        "start": 2395
      },
      {
        "length": 32,
        "start": 2664
      },
      {
        "length": 32,
        "start": 5041
      },
      {
        "length": 32,
        "start": 5252
      },
      {
        "length": 32,
        "start": 5470
      }
    ]
  },
  "inputSourceName": "project/contracts/Staking/staking.sol",
  "buildInfoId": "solc-0_8_28-9f13b412e357bbbfdb11918d632a43adb94c2fb1"
}